:100000000C9449010C946A010C94E32E0C94102F6B
:100010000C946A010C946A010C946A010C946A01B4
:100020000C946A010C946A010C94EE360C946A01EB
:100030000C940A380C94B2370C94B2350C946A01C3
:100040000C946A010C946A010C946A010C946A0184
:100050000C946A010C946A010C946A010C946A0174
:100060000C946A010C94EB3A0C946A010C946A01AA
:100070000C94513B0C946A010C946A010C946A0133
:100080000C94BF2A0C946A010C94892E0C94B62E01
:100090000C946A010C946A010C946A010C946A0134
:1000A0000C946A010C946A010C946A010C94972FC9
:1000B0000C94C42F0C9436380C94DE370C945036C4
:1000C0000C946A010C946A010C946A010C946A0104
:1000D0000C946A010C946A010C946A010C946A01F4
:1000E0000C946A010C946A010C94833C0C946A0190
:1000F0000C946A010C94E93C0C946A010C946A011A
:100100000C943D2F0C946A2F0C942F2E0C945C2E83
:100110000C946A010C946A010C946A010C946A01B3
:100120000C946A010C946A010C946A010C946A01A3
:100130000C946A010C9401360C946A010C946A01C7
:100140000C946A010C946A010C946A010C946A0183
:100150000C946A010C946A010C946A010C946A0173
:100160000C94B73B0C946A010C946A010C941D3CEE
:100170000C946A010C946A010C946A010C946A0153
:100180000C946A010C946A010C946A010C946A0143
:100190000C946A010C946A010C946A010C946A0133
:1001A0000C94F12F0C941E300C946A010C946A018B
:1001B0000C949F360C946A010C946A010C946A01A9
:1001C0000C946A010C946A010C946A010C946A0103
:1001D0000C946A010C946A010C946A010C944F3DD2
:1001E0000C946A010C946A010C946A010C946A01E3
:1001F0000C946A010C946A010C946A0129509F5076
:10020000915081507750715055503D504F500C9443
:10021000D2380C9455500C94C14D0C94E6380C9483
:10022000004C0C94B53D0C94613E0C94FA180C945F
:10023000994A0C94101A0C9436160C9462380C944B
:100240009F500C9481500C944F500C94F7170C94C1
:10025000034C0C947E380C9491500C9477500C9471
:10026000F2020C94683E0C944F3F0C946D3E0C943B
:10027000AE1A0C94633E0C94C11B0C9429500C9440
:10028000C5160C9471500C943D500C945C170C9452
:100290002D4E11241FBECFEFCDBFDFE5DEBF00E046
:1002A0000CBF14E2A0E0B0E2E2E9F3EB00E00BBF28
:1002B00002C007900D92AA32B107D9F725E3AAE24E
:1002C000B4E201C01D92AD3FB207E1F70E942B429C
:1002D0000C94C7590C9400004F925F926F927F92DA
:1002E0008F929F92AF92BF92CF92DF92EF92FF9246
:1002F0000F931F93CF93DF93EC017B0149015A01C8
:10030000E88DF98D888199811995882309F46EC04B
:10031000EA8DFB8D309719F0888199811995280114
:10032000612C712C411451046104710409F459C009
:100330008701C12CD12C76010BC08FEFC81AD80AC7
:10034000E80AF80A1E5FC414D504E604F704C0F5F1
:1003500048A159A16AA17BA1480D591D6A1D7B1DA9
:100360004C0D5D1D6E1D7F1DEC89FD8998018881F6
:1003700099811995882309F386E290E00E94DF2A8B
:10038000EC8DFD8D309731F1888199811995AA24E2
:10039000AA94BB24BA940FEF1FEFB501C801DF91F7
:1003A000CF911F910F91FF90EF90DF90CF90BF9072
:1003B000AF909F908F907F906F905F904F90089537
:1003C00056018701EC8DFD8D309739F38881998135
:1003D0001995E3CFAA24AA94BB24BA940FEF1FEF78
:1003E000DCCFA12CB12C00E010E0ECCF85E290E056
:1003F0000E94DF2AAA24AA94BB24BA940FEF1FEF0D
:10040000CCCF4F925F926F927F928F929F92AF92DA
:10041000BF92CF92DF92EF92FF920F931F93CF93F1
:10042000DF93EC017B0149015A01E88DF98D888148
:1004300099811995882309F46EC0EA8DFB8D309758
:1004400019F08881998119952801612C712C41142A
:1004500051046104710409F459C08701C12CD12CE5
:1004600076010BC08FEFC81AD80AE80AF80A1E5F97
:10047000C414D504E604F704C0F548A159A16AA143
:100480007BA1480D591D6A1D7B1D4C0D5D1D6E1D08
:100490007F1DEE89FF8998018881998119958823AC
:1004A00009F389E290E00E94DF2AEC8DFD8D309700
:1004B00031F1888199811995AA24AA94BB24BA9410
:1004C0000FEF1FEFB501C801DF91CF911F910F9181
:1004D000FF90EF90DF90CF90BF90AF909F908F9064
:1004E0007F906F905F904F90089556018701EC8D3B
:1004F000FD8D309739F3888199811995E3CFAA242E
:10050000AA94BB24BA940FEF1FEFDCCFA12CB12C1F
:1005100000E010E0ECCF85E290E00E94DF2AAA2400
:10052000AA94BB24BA940FEF1FEFCCCFDC015896EE
:10053000ED91FC9159978D919C911994CF92DF92F6
:10054000EF92FF920F931F93CF93DF93EC016A0119
:100550007B0184E290E00E9455528C018C899D8938
:10056000F801848B958B8E899F89868B978B888DDC
:10057000998D808F918FC0A2D1A2E2A2F3A288812F
:100580009981808391838B898F5F838B9A89928BEA
:100590002A8D3B8D228F338F2C8D3D8D248F358F6F
:1005A0002E8D3F8D268F378F1F928F932296DF934C
:1005B000CF9384E390E29F938F93C80102969F9319
:1005C0008F930E941E57EDB7FEB73896EDBFFEBF62
:1005D000C801DF91CF911F910F91FF90EF90DF90B5
:1005E000CF9008958F929F92AF92BF92CF92DF9259
:1005F000EF92FF920F931F9381E0F8018083F9013E
:10060000EB5AFB4D84811F910F91FF90EF90DF908B
:10061000CF90BF90AF909F908F9008950F931F93AE
:10062000E5E5F4E220935B2630935C26808391839A
:10063000628373834093592650935A2682E090E058
:10064000A0E0B0E080935D2690935E26A0935F26A5
:10065000B0936026009361261093622680E01F917C
:100660000F910C94E534CF93DF93EC019C0142E3AE
:1006700050E061E070E089E390E20E94DC569E0168
:1006800044E150E061E070E08CE690E20E94DC56CC
:100690009E0142E350E061E070E089E390E20E9455
:1006A000DC569E0143E250E061E070E081E890E2B8
:1006B0000E94DC569E0142E050E061E070E085EA75
:1006C00090E20E94DC569E014EE050E061E070E056
:1006D00088EA90E20E94DC569E0142E350E061E02D
:1006E00070E089E390E2DF91CF910C94DC568F9219
:1006F0009F92AF92BF92CF92DF92EF92FF920F93B1
:100700001F93CF93DF936B01EA0160E00E943107F2
:10071000FC01E080F180E114F10409F445C0C60158
:100720000E94BD344B015C0101E010E09B01AC0173
:1007300069E574E2C7010E946C016F3F7F4F8F4FE4
:100740009F4F91F19401A50160E070E080E090E09E
:1007500009E00E94E2519F938F937F936F935F9381
:100760004F933F932F9382E08F938F9388E08F93E3
:100770001F921F921F921F921F921F9281E08F93D0
:100780008FEF8F93E12CF12C00E010E020E030E0BF
:1007900040E050E062EF72E0CE010E9485288DB704
:1007A0009EB743968DBF9EBFDF91CF911F910F9152
:1007B000FF90EF90DF90CF90BF90AF909F908F9081
:1007C00008954F925F926F927F92AF92BF92CF92B5
:1007D000DF92EF92FF920F931F93CF93DF93CDB7EA
:1007E000DEB7C852D240CDBFDEBF5B0160915B2651
:1007F00070915C26AC01CE0101960E94F8258823F9
:10080000B9F1CE0101960E94A82140E050E0BA0162
:10081000CE0101960E94DB21882399F19E012F5F72
:100820003F4F4AE050E060E070E0CE01815E9D4FB6
:100830000E9472222B013C01672B682B692BA1F1CE
:100840008E01015E1D4FC12CD12C7601F8018191E2
:100850008F01B50190E00E94A056FFEFCF1ADF0A8A
:10086000EF0AFF0A4C145D046E047F0479F7D6CFBB
:10087000950144E150E061E070E087EB90E20E9476
:10088000DC56C85DDD4FCDBFDEBFDF91CF911F913C
:100890000F91FF90EF90DF90CF90BF90AF907F903F
:1008A0006F905F904F900895B5018AE090E00E94AC
:1008B000A056E7CF0F931F93CF93DF93182F062FE8
:1008C000C5E5D4E2682F8A819B810E94C74B41E035
:1008D00050E002C0440F551F0A95E2F7482B592BF0
:1008E000612F8A819B81DF91CF911F910F910C9491
:1008F000CE4A0F931F93CF93DF93182F062FC5E592
:10090000D4E2682F8A819B810E94C74B41E050E06E
:1009100002C0440F551F0A95E2F7409550954823B1
:100920005923612F8A819B81DF91CF911F910F9174
:100930000C94CE4ACF93DF93EB01682F809157241C
:10094000909158240E94C74B9F938F938CEC90E218
:100950009F938F93DF93CF930E941E570F900F901A
:100960000F900F900F900F90DF91CF910895CF933C
:10097000C82FCB010E94BD34AB016C2F809157244E
:1009800090915824CF910C94CE4ACF92DF92EF925F
:10099000FF920F931F93CF93DF93CDB7DEB7CF5462
:1009A000D140CDBFDEBFF82EE92EC753DF4F1882EE
:1009B000C95CD04019828E010B591F4FF80110827B
:1009C000482F592F64E670E0CE0187539F4F0E9455
:1009D0005E566AE0CE0187539F4F0E9421326DE040
:1009E000CE0187539F4F0E942132BE01635D7E4F2F
:1009F000CE0187539F4F0E942833C15DDE4F88810F
:100A0000CF52D140813009F40FC1823009F4D5C0F2
:100A10008823A9F185E090E00E94DF2A0E94F12A54
:100A20008111B8C0AE01435D5E4F64E670E0C8015D
:100A30000E943C326AE0C8010E9421326FE3C80183
:100A40000E942132CE0101969F938F931F930F93A3
:100A50008EE491E29F938F93EF92FF920E949056C3
:100A6000CDBFDEBFC15BDE4FCDBFDEBFDF91CF911B
:100A70001F910F91FF90EF90DF90CF900895C35D8D
:100A8000DE4FC880D980CD52D14064ED70E2C601FE
:100A90000E94CA55892B09F418C16AED70E2C6019B
:100AA0000E94CA55892B09F42FC16FED70E2C6016F
:100AB0000E94CA55892B09F448C164EE70E2C60150
:100AC0000E94CA55892B09F449C169EE70E2C6013A
:100AD0000E94CA55892B09F41EC16EEE70E2C60150
:100AE0000E94CA55892B09F44DC161EF70E2C6011D
:100AF0000E94CA55892B09F459C166EF70E2C601FC
:100B00000E94CA55892B09F45AC16BEF70E2C601E5
:100B10000E94CA55892B09F459C160E071E2C601EF
:100B20000E94CA55892B09F45AC165E071E2C601D9
:100B30000E94CA55892B09F45BC16AE071E2C601C3
:100B40000E94CA55892B09F45AC16FE071E2C601AF
:100B50000E94CA55892B09F05DCFE0915B26F09188
:100B60005C260190F081E02D0190F081E02D8081E4
:100B700091810E94B2509F938F937F936F9384E1F2
:100B800091E29F938F93EF92FF920E949056CDBF78
:100B9000DEBF44CF0E94ED2A9F938F9381E793E2BB
:100BA0009F938F93EF92FF920E9490560F900F9019
:100BB0000F900F900F900F9055CFC35DDE4FC88000
:100BC000D980CD52D1406CE371E2C6010E94CA5572
:100BD000892B09F47FC060E471E2C6010E94CA5506
:100BE000892B09F484C064E471E2C6010E94CA55ED
:100BF000892B09F49CC068E471E2C6010E94CA55C1
:100C0000892B09F007CFCE5BDE4F68817981C25412
:100C1000D1404F2D5E2DC05CDE4F88819981C0543C
:100C2000D1400E947703FACEC35DDE4FC880D980E1
:100C3000CD52D14063E271E2C6010E94CA55892BB0
:100C400099F167E271E2C6010E94CA55892B09F445
:100C5000E5CE6BE271E2C6010E94CA55892B09F408
:100C600082C06EE271E2C6010E94CA55892B09F466
:100C700055C063E371E2C6010E94CA55892B09F48D
:100C80008AC067E371E2C6010E94CA55892B09F048
:100C9000C1CEBE016F5F7F4FC05DDE4F8881C05304
:100CA000D1400E949A04BACEC05CDE4F88819981FF
:100CB000C054D1400E94BD34609317207093182017
:100CC0008093192090931A20A9CE8F2D9E2D0E94DB
:100CD0003303A4CECE5CDE4F6881C253D140C05DE9
:100CE000DE4F8881C053D1400E945A0497CECE5C1B
:100CF000DE4F6881C253D140C05DDE4F8881C05352
:100D0000D1400E9479048ACE809157249091582432
:100D10000E94C74A83CE0E945E4380CEC05CDE4FF5
:100D200088819981C054D1400E94D53E77CECE5B58
:100D3000DE4F68817981C254D140C05DDE4F888129
:100D4000C053D1400E94B70469CE60E070E080914A
:100D50005724909158240E945C4A60CE8F2D9E2D7E
:100D60000E942E085BCEC05CDE4F68817981C05442
:100D7000D1404F2D5E2D80915B2690915C260E9484
:100D80009B254CCE6F2D7E2D80915B2690915C260D
:100D90000E94A92643CE6F2D7E2DC05CDE4F888138
:100DA0009981C054D1400E94E10338CE6F2D7E2D31
:100DB00080916126909162260E949D492FCE80915C
:100DC0006126909162260E94514928CE60E070E031
:100DD00080916126909162260E9484491FCE60E036
:100DE00070E080916126909162260E94684916CE3B
:100DF00080916126909162260E94F7490FCE8091E2
:100E00006126909162260E94174A08CE809157244D
:100E1000909158240C94C74A60E070E08091572468
:100E2000909158240C945C4ACF93C62F609365260A
:100E30008093662690936726862F90E0880F991FEF
:100E40000E9455528093632690936426CC2339F0F8
:100E5000FC0180E0119211928F5FC813FBCFCF91FC
:100E600008952F923F924F925F926F927F928F924E
:100E70009F92AF92BF92CF92DF92EF92FF920F9329
:100E80001F93CF93DF93CDB7DEB76397CDBFDEBFA0
:100E90006C016B8BFC0101900020E9F73197E81B96
:100EA000F90B20906526222009F470C0009163267A
:100EB00010916426512C7E0199E0E90EF11C4F013E
:100EC000AFEF8A1A9A0AFF273F01B1E06B1A710847
:100ED000AA24A394B12CAC0EBD1EA60CB71CF7011E
:100EE000E60DF71DE98BFA8B0BC0B701CE01019619
:100EF0000E94CA55892B91F15394521409F446C0AB
:100F0000302E412ED8016D917D918D0161157105B5
:100F100099F36E5F7F4FC7010E94D355A401B601BC
:100F2000CE0101960E94BA55F70101900020E9F721
:100F30003197EE19FF09D5018C918A32B1F6FF275E
:100F4000E615F705CCF2E989FA8910821C92B701FF
:100F5000CE0101960E94CA55892B71F6832D942DDE
:100F60006396CDBFDEBFDF91CF911F910F91FF90B0
:100F7000EF90DF90CF90BF90AF909F908F907F9039
:100F80006F905F904F903F902F9008958B898823AA
:100F900019F0312C412CE2CF88E290E00E94DF2A48
:100FA000312C412CDBCFDC01609165266623B9F042
:100FB000E0916326F091642620813181232B89F012
:100FC0009F012E5F3F4F90E007C0F9012E5F3F4F1A
:100FD00040815181452B29F09F5F9613F6CF81E028
:100FE0000895A083B18380E00895EF92FF920F935C
:100FF0001F93CF93DF937C0102E611E261E0C7010A
:101000000E943107EC01892B11F1888199810E949E
:10101000ED528881998102969F938F931F930F932E
:10102000809167268F93809166268F930E949056B9
:10103000188219820F900F900F900F900F900F90C1
:1010400061E0C7010E943107EC01892BF1F6DF91C5
:10105000CF911F910F91FF90EF900895FF920F9302
:101060001F93CF93DF9340916526442349F1F92ED6
:10107000082F10E0C5E4D2E2E12FF0E0EE0FFF1FF1
:101080002091632630916426E20FF31F2081318185
:101090002115310591F02E5F3F4F3F932F93DF9342
:1010A000CF93FF920F930E9490560F900F900F9046
:1010B0000F900F900F90409165261F5F1417E0F27C
:1010C000DF91CF911F910F91FF9008950F931F9380
:1010D000D901E8E6F6E262837383808391834583D6
:1010E00056830783108731E031873287A387B4871F
:1010F0001F910F910C940D0A80917126823039F165
:10110000833059F0813009F0089580917226882348
:10111000D9F382E080937126089560E07FEF8FEF2E
:101120009FEF0E94AB0BE0917326F09174263097ED
:1011300009F0199560E070E0CB010E94AB0B61E013
:101140007FEF8FEF9FEF0E94AB0B0C94E70B80912A
:101150006A2690916B260E94472D61E08091682657
:10116000909169260E94DC3180916A2690916B26CD
:101170000E944F2D2FEF83EF91E02150804090404F
:10118000E1F700C0000080916A2690916B260E94D2
:10119000472D2FEF83EF91E0215080409040E1F701
:1011A00000C0000040E050E0BA0180E00E94140A54
:1011B0000E94500A40E050E0BA0180E00E94140A08
:1011C0000E94500A2FEF8FE097E22150804090401C
:1011D000E1F700C0000060E084E00E94850B68EE4B
:1011E00073E080916D2690916E260E94A03508C014
:1011F00080916D2690916E260E94A735811108C0BE
:1012000060E070E280E390E00E94360B8C3781F75B
:1012100080916D2690916E260E94A735811174CF22
:1012200040EE51E064E370E280E390E00E94080B3E
:1012300044E252E06CE270E280E390E00E94080B2E
:101240004BE250E060E370E280E390E00E94080B24
:1012500040E050E068E370E280E390E00E94080B19
:1012600049E250E06CE370E280E390E00E94080BFA
:1012700040E151E068E470E280E390E00E94080BF6
:1012800044E251E060E470E280E390E00E94080BE9
:101290004CE050E064E470E280E390E00E94080BD0
:1012A00040E050E06CE470E280E390E00E94080BC4
:1012B0004AE050E060E570E280E390E00E94080BB5
:1012C00040E064E670E280E390E00E94F00A40E0D3
:1012D0006CE670E280E390E00E94F00A41E068E68C
:1012E00070E280E390E00E94F00A41E050E060E6A6
:1012F00070E280E390E00E94080B44E164ED70E24C
:1013000080E390E00E94F00A60E07FEF8FEF9FEFB4
:101310000E94AB0B60E070E080E092E00E94AB0BBB
:1013200067E070E080E096E20E94AB0B60E070E066
:10133000CB010E94AB0B61E07FEF8FEF9FEF0E942C
:10134000AB0B60E970E280E390E00E94360B482F1F
:10135000406860E970E280E390E00E94F00A64E98E
:1013600070E280E390E00E94360B482F406864E909
:1013700070E280E390E00E94F00A45E060E770E2EE
:1013800080E390E00E94F00A40E068E071E280E3D0
:1013900090E00E94F00A0E94E70B28EC3EEF40E04C
:1013A00050E060E571E280E390E00E941C0B24E2D3
:1013B00037E040E050E064E571E280E390E00E94B5
:1013C0001C0B28EE3DE641EF5FEF68E571E280E33C
:1013D00090E00E941C0B29E734E040E050E06CE50F
:1013E00071E280E390E00E941C0B20E533E041E0D5
:1013F00050E060E671E280E390E00E941C0B26EE74
:1014000033E84AEF5FEF64E671E280E390E00E9428
:101410001C0B83E0809371260895E5E7F6E2808354
:101420009183128213820895CF92DF92EF92FF92FE
:10143000CF93C82F6A017B0160E08091752690915F
:1014400076260E94DC316C2F6E2980917526909152
:1014500076260E94C83199278F2D7E2D6D2D809183
:101460007526909176260E94C8316C2D8091752644
:10147000909176260E94C831CC2331F0CF91FF9015
:10148000EF90DF90CF90089560E080917526909165
:101490007626CF91FF90EF90DF90CF900C94C831DB
:1014A00061E080917526909176260C94DC31682F4E
:1014B00080917526909176260E94C831862F0895D6
:1014C000CF92DF92EF92FF921F93CF93DF93192F6A
:1014D000C5E7D6E2682F888199810E94C8316B01E7
:1014E0007C01612F888199810E94C831B82FA72F74
:1014F000962F88278C299D29DF91CF911F91FF90EE
:10150000EF90DF90CF9008954F925F926F927F920D
:101510008F929F92AF92BF92CF92DF92EF92FF9203
:10152000CF93DF9300D01F92CDB7DEB74B015C01A4
:10153000A5E7B6E28D919C910E94C83169837A83B8
:101540008B839C8399278B2D7A2D692DE5E7F6E215
:10155000808191810E94C8312B013C01B50188270F
:101560009927A5E7B6E28D919C910E94C831F62C8F
:10157000E52CD42CCC24DB0199278827C82AD92A2A
:10158000EA2AFB2A89819A81AB81BC81C82AD92A9F
:10159000EA2AFB2A6B2D772788279927A5E7B6E249
:1015A0008D919C910E94C831B62FAA279927882730
:1015B000BC01CD016C297D298E299F292496CDBFA0
:1015C000DEBFDF91CF91FF90EF90DF90CF90BF9083
:1015D000AF909F908F907F906F905F904F90089505
:1015E0001F93CF93DF93142FAB01BC0180E80E94BF
:1015F000140AC5E7D6E2612F888199810E94C8311B
:1016000061E088819981DF91CF911F910C94DC3149
:10161000CF93DF93EA01AB01BC0180E80E94140A7A
:10162000CE010E94600A61E0809175269091762635
:10163000DF91CF910C94DC31CF92DF92EF92FF9249
:1016400069017A01AB01BC0180E80E94140AC7015C
:10165000B6010E94840A61E08091752690917626F9
:10166000FF90EF90DF90CF900C94DC311F93CF93DD
:10167000DF93AB01BC0180E00E94140AC5E7D6E20B
:1016800060E0888199810E94C831162F61E08881CD
:1016900099810E94DC31812FDF91CF911F910895B4
:1016A000CF93DF93AB01BC0180E00E94140A80E07D
:1016B00090E00E94600AEC0161E0809175269091B3
:1016C00076260E94DC31CE01DF91CF910895CF9232
:1016D000DF92EF92FF92AB01BC0180E00E94140AFE
:1016E00060E070E0CB010E94840A6B017C0161E044
:1016F00080917526909176260E94DC31C701B60153
:10170000FF90EF90DF90CF900895462F50E060E07B
:1017100070E0762F652F542F4427682B80E40E94B9
:10172000140A61E080917526909176260C94DC3144
:10173000E5E7F6E242815381640F751F6D5F7F4FCD
:10174000AB014C7F5F70428353836CEF70E280E3A8
:1017500090E00C94080BCF92DF92EF92FF920F93E0
:101760001F93CF93DF936B017C010CEF1FE0C091BF
:101770007726D091782668EF70E280E390E00E94AF
:10178000500BC81BD90BDF70C8018C1B9D0B049735
:1017900070F36091772670917826CB01A0E0B0E0DD
:1017A000BC01CD0170588F4C9F4FA70196010E943C
:1017B0001C0B64E070E080E090E0DF91CF911F911E
:1017C0000F91FF90EF90DF90CF900C94980BCF93F8
:1017D000DF9368EF70E280E390E00E94500BEC0131
:1017E0006CEF70E280E390E00E94500BC817D907BD
:1017F00081F76CEF70E280E390E00E94500B8093E1
:10180000772690937826DF91CF9108952F923F927B
:101810004F925F926F927F928F929F92AF92BF9200
:10182000CF92DF92EF92FF920F931F93CF93DF93AC
:1018300000D000D0CDB7DEB71C012A013B010CEF70
:101840001FE0209177263091782629833A8368EF2C
:1018500070E280E390E00E94500BA981BA81A81B3E
:10186000B90BBF70C8018A1B9B0BA0E0B0E053010D
:10187000420184159505A605B70510F44C015D01DC
:10188000E0917726F0917826E983FA8368EF70E299
:1018900080E390E00E94500B29813A81281B390B8C
:1018A0003F70C801821B930BA0E0B0E0881599053A
:1018B000AA05BB0528F3409177265091782660E071
:1018C00070E050586F4C7F4F80E80E94140AD50199
:1018D000C4010197A109B10989839A83AB83BC83B1
:1018E00081149104A104B104D1F02D823E827501CE
:1018F0006401AD81BE816D91AD83BE8380917526FB
:10190000909176260E94C831B1E0CB1AD108E10847
:10191000F10879F789819A810196280E391E61E0D4
:1019200080917526909176260E94DC31C501B40124
:101930000E94980B0E94E70B481859086A087B0818
:1019400009F07FCF2696CDBFDEBFDF91CF911F91EB
:101950000F91FF90EF90DF90CF90BF90AF909F904E
:101960008F907F906F905F904F903F902F90089551
:101970008F929F92AF92BF92CF92DF92EF92FF929F
:101980000F931F93CF93DF935C014B017A016901A1
:10199000E80109900020E9F72197C01BD10B6CE00A
:1019A0007FEF8FEF9FEF0E94AB0BC401A0E0B0E090
:1019B000BC0155274427C501A0E0B0E04A015B0106
:1019C000882A992AAA2ABB2AC501B4010E94AB0B16
:1019D000C601A0E0B0E0BC0155274427C701A0E044
:1019E000B0E05A016B01A82AB92ACA2ADB2AC6012B
:1019F000B5010E94AB0B2196AE0160E070E0C8011A
:101A0000DF91CF911F910F91FF90EF90DF90CF90DA
:101A1000BF90AF909F908F900C94060C8093792686
:101A200090937A2608950F931F93FC01108A118AD0
:101A3000128A138A148A158A168A178A62957295F1
:101A4000707F7627607F76276083718342955295F9
:101A5000507F5427407F54274283538322953295E9
:101A6000307F3227207F32272483358302951295D9
:101A7000107F1027007F10270683178360877187E8
:101A80004287538724873587068717871F910F91D1
:101A900008958F929F92AF92BF92CF92DF92EF9272
:101AA000FF920F931F93CF93DF93CDB7DEB7FC0167
:101AB00002951295107F1027007F10270083118355
:101AC000E294F29490EFF922FE24E922FE24E282CD
:101AD000F382C294D29450EFD522DC24C522DC24B8
:101AE000C482D582A294B294A0EFBA22BA24AA22C8
:101AF000BA24A682B78282949294B0EF9B22982453
:101B00008B229824808A918A8889998982959295D6
:101B1000907F9827807F9827828B938B8A899B89D7
:101B200082959295907F9827807F9827848B958BBC
:101B30008C899D8982959295907F9827807F9827A0
:101B4000868B978B8E89808F41AB20AF31AF8F8989
:101B5000988DA98DBA8D81A392A3A3A3B4A38B8DD5
:101B60009C8DAD8DBE8D81A792A7A3A7B4A78F8DA5
:101B700098A1A9A1BAA185A796A7A7A7B0AB8BA149
:101B80009CA182AF93AF12AA66AB77AB8DA19EA149
:101B900084AB95AB8FA183ABDF91CF911F910F9158
:101BA000FF90EF90DF90CF90BF90AF909F908F907D
:101BB0000895FC01808DA6A9B7A980FD2BC081FFE7
:101BC00063C04681578112966D917C9113971E9642
:101BD0002D913C911F97260F371F62897389261B11
:101BE000370B241B350B228733874687578782FDA7
:101BF00023C083FD6FC018962D913C911997808169
:101C00009181820F931F808791878481958184873A
:101C10009587089581FD21C01A964D915C911B977F
:101C200020893189240F351F228733872681378108
:101C30002687378782FFDDCF83FD35C018962D912B
:101C40003C91199784899589820F931F808791878A
:101C500084819581848795870895408951891A9652
:101C60002D913C911B97240F351F228733872289A2
:101C70003389420F531F1E962D913C911F97241BB1
:101C8000350B26873787D6CF1A964D915C911B97D7
:101C900022813381240F351F2287338726813781A4
:101CA00026873787C7CF2489358918968D919C91CF
:101CB0001997820F931F8087918786899789280FAC
:101CC000391F1C968D919C911D97821B930B8487C5
:101CD00095870895248135814D915C9111971C96CB
:101CE0008D919C911D97840F951F46895789841B60
:101CF000950B821B930B80879187248735870895E6
:101D00008F929F92AF92BF92CF92DF92EF92FF920B
:101D10000F931F93CF93DF93CDB7DEB7FC01888974
:101D20009989AA89C294D294B0EFDB22DC24CB2219
:101D3000DC24C08AD18AA294B294B0EFBB22BA2428
:101D4000AB22BA24A28AB38A82949294B0EF9B22E7
:101D500098248B229824848A958A82959295907FE4
:101D60009827807F9827868B978BA08F42955295D6
:101D7000507F5427407F54274083518322953295CA
:101D8000307F3227207F32272283338302951295BA
:101D9000107F1027007F102704831583E294F294AC
:101DA00030EFF322FE24E322FE24E682F78266ABC4
:101DB00077ABCF01DF91CF911F910F91FF90EF9003
:101DC000DF90CF90BF90AF909F908F900C94D90DE3
:101DD000AF92BF92CF92DF92EF92FF920F931F9339
:101DE000CF93DF93EC01F88CAC80BD80CE80DF8098
:101DF0000E94D90D888D84FD0BC0DF91CF911F917A
:101E00000F91FF90EF90DF90CF90BF90AF9008952B
:101E100060E070E080E092E20E94AB0BEEA9FFA9C7
:101E200060857185729562956F7067277F706727EF
:101E30007770CB01A0E0B0E0AC01BD018BE0440FB6
:101E4000551F661F771F8A95D1F7828593859295D6
:101E500082958F7089279F7089279770A0E0B0E0E6
:101E6000BB618A019B01082B192B2A2B3B2BC90133
:101E7000B8010E94AB0BEEA9FFA964857585729528
:101E800062956F7067277F706727CB01A0E0B0E095
:101E9000AC01BD01ACE0440F551F661F771FAA952A
:101EA000D1F786859785929582958F7089279F7047
:101EB0008927A0E0B0E0BC618A019B01082B192BA7
:101EC0002A2B3B2BC901B8010E94AB0BF5FEAFC119
:101ED0008AA9823009F4A1C189A19AA1ABA1BCA1B0
:101EE000BC01CD0194600E94AB0B69A9862F90E0E4
:101EF000A0E0B0E0BC01CD0193600E94AB0B69E0B3
:101F000070E080E09FE10E94AB0B688579857F7768
:101F1000CB01A0E0B0E0AC01BD01BFE0440F551F14
:101F2000661F771FBA95D1F78A859B859F77A0E0BA
:101F3000B0E0B0648A019B01082B192B2A2B3B2BA4
:101F4000C901B8010E94AB0B688579858C859D8598
:101F5000680F791F7F77CB01A0E0B0E0AC01BD0135
:101F60001FE0440F551F661F771F1A95D1F72A856A
:101F70003B858E859F85820F931F9F77A0E0B0E001
:101F8000B0648A019B01082B192B2A2B3B2BC9011A
:101F9000B8010E94AB0B60E070E080E091E20E942B
:101FA000AB0BE8ADF9AD309721F1EDA4FEA40FA580
:101FB00018A9C601969587952E853F85281B390B54
:101FC000C501969587954C855D85481B590BD69420
:101FD000C794D694C7946A857B856C0D7D1DC50119
:101FE0009695879596958795A885B9858A0F9B1FA5
:101FF000199560E070E080E093E20E94AB0B8CA941
:102000009DA9892B09F491C060E070E080E092E224
:102010000E94AB0B68857985729562956F70672712
:102020007F7067277770CB01A0E0B0E0AC01BD0105
:102030003BE0440F551F661F771F3A95D1F78A85FD
:102040009B85929582958F7089279F7089279770BD
:10205000A0E0B0E0BB618A019B01082B192B2A2B61
:102060003B2BC901B8010E94AB0B8C859D859295D5
:1020700082958F7089279F7089270A979F70A0E0AB
:10208000B0E01CE0880F991FAA1FBB1F1A95D1F75B
:102090004E855F85529542954F7045275F70452765
:1020A00060E070E07C618C019D01042B152B262BD8
:1020B000372BC901B8010E94AB0B8DA59EA5AFA51A
:1020C000B8A9BC01CD0194600E94AB0B2BA90CA94F
:1020D0001DA9422F50E06A857B85729562956F70CD
:1020E00067277F7067278E859F8596958795929540
:1020F00082958F7089279F708927680F791F269591
:10210000621B710988859985929582958F708927C0
:102110009F70892720E030E00A960E94B80C60E0AA
:1021200070E080E093E20E94AB0B69A9862F90E0FB
:10213000A0E0B0E0BC01CD0193600E94AB0B60E079
:1021400070E080E092E20E94AB0B60E070E080E023
:1021500090E20E94AB0B69E070E080E09FE10E949A
:10216000AB0B688579857F77CB01A0E0B0E0AC014F
:10217000BD018FE0440F551F661F771F8A95D1F769
:102180008A859B859F77A0E0B0E0B0648A019B01BF
:10219000082B192B2A2B3B2BC901B8010E94AB0B32
:1021A000688579858C859D85680F791F7F77CB0140
:1021B000A0E0B0E0AC01BD019FE0440F551F661FD9
:1021C000771F9A95D1F72A853B858E859F85820F4B
:1021D000931F9F77A0E0B0E0B0648A019B01082BB9
:1021E000192B2A2B3B2BC901B8010E94AB0B60E0D5
:1021F00070E080E091E20E94AB0B60E070E080E074
:1022000093E2DF91CF911F910F91FF90EF90DF90BC
:10221000CF90BF90AF900C94AB0B89A59AA5ABA5BE
:10222000BCA5BC01CD0194600E94AB0B5ECE62E107
:1022300070E180E194E00E94AB0B57CECF93DF9327
:10224000FC01208D25FF0DC0EC0192A99230D9F13F
:1022500058F0943071F120F1953019F481A9681388
:102260001AAADF91CF9108959923A1F09130C9F76F
:1022700002ACF3ADE02D309711F0CE01199560E975
:1022800071E08091792690917A260E94A03582E0B3
:102290008AABE7CF81A98613E4CF81E082ABE1CF9F
:1022A00002ACF3ADE02D3097D9F2CE0119951AAA00
:1022B000D8CF02ACF3ADE02D309711F0CE011995D7
:1022C00085E08AABCECF81A9681711F083E082AB9D
:1022D0008091792690917A260E94A735882309F269
:1022E00084E08AABBECF21E0FC0182A9843009F0F2
:1022F00020E0822F089521E0FC0182A9833009F0BB
:1023000020E0822F08958F929F92AF92BF92CF923A
:10231000DF92EF92FF920F931F93CF93DF93CDB78E
:10232000DEB7FC0122953295307F3227207F32279D
:102330002083318302951295107F1027007F10278C
:1023400002831383E294F29420EFF222FE24E2222D
:10235000FE24E482F582C294D29430EFD322DC24AE
:10236000C322DC24C682D782A294B29450EFB52255
:10237000BA24A522BA24A08AB18A82949294A0EFAA
:102380009A2298248A229824828A938A8889998911
:1023900082959295907F9827807F9827848B958B44
:1023A0008A899B8982959295907F9827807F98272C
:1023B000868B978B8C89808F41AB8D899E89AF8965
:1023C000B88D81A392A3A3A3B4A3898D9A8DAB8D5D
:1023D000BC8D85A396A3A7A3B0A78D8D9E8DAF8D31
:1023E000B8A181A792A7A3A7B4A789A19AA182AFF8
:1023F00093AF12AA66AB77ABDF91CF911F910F918C
:10240000FF90EF90DF90CF90BF90AF909F908F9014
:1024100008950F931F93CF93DF93EC010E94D90D82
:10242000888D84FD05C0DF91CF911F910F91089594
:1024300060E070E080E092E20E94AB0BEEA9FFA9A1
:1024400060857185729562956F7067277F706727C9
:102450007770CB01A0E0B0E0AC01BD013BE0440FE0
:10246000551F661F771F3A95D1F782859385929500
:1024700082958F7089279F7089279770A0E0B0E0C0
:10248000BB618A019B01082B192B2A2B3B2BC9010D
:10249000B8010E94AB0BEEA9FFA964857585729502
:1024A00062956F7067277F706727CB01A0E0B0E06F
:1024B000AC01BD01BCE0440F551F661F771FBA95E4
:1024C000D1F786859785929582958F7089279F7021
:1024D0008927A0E0B0E0BC618A019B01082B192B81
:1024E0002A2B3B2BC901B8010E94AB0B89A19AA1F1
:1024F000ABA1BCA1BC01CD0194600E94AB0B69A94A
:10250000862F90E0A0E0B0E0BC01CD0193600E9476
:10251000AB0B69E070E080E09FE10E94AB0B688547
:1025200079857F77CB01A0E0B0E0AC01BD010FE081
:10253000440F551F661F771F0A95D1F78A859B8523
:102540009F77A0E0B0E0B0648A019B01082B192BB3
:102550002A2B3B2BC901B8010E94AB0B68857985FA
:102560008C859D85680F791F7F77CB01A0E0B0E057
:10257000AC01BD018FE0440F551F661F771F8A9580
:10258000D1F72A853B858E859F85820F931F9F7784
:10259000A0E0B0E0B0648A019B01082B192B2A2B24
:1025A0003B2BC901B8010E94AB0B60E070E080E0FA
:1025B00091E20E94AB0B8AA9823009F46BC08DA115
:1025C0009EA1AFA1B8A5BC01CD0194600E94AB0B48
:1025D00069E070E080E09FE10E94AB0B688579853F
:1025E000605F7F4F7F77CB01A0E0B0E0AC01BD0121
:1025F0008FE0440F551F661F771F8A95D1F78A8594
:102600009B8540969F77A0E0B0E0B0648A019B0173
:10261000082B192B2A2B3B2BC901B8010E94AB0BAD
:10262000688579858C859D85680F791F6051710952
:102630007F77CB01A0E0B0E0AC01BD019FE0440F8B
:10264000551F661F771F9A95D1F72A853B858E8582
:102650009F85820F931F40979F77A0E0B0E0B06402
:102660008A019B01082B192B2A2B3B2BC901B8018E
:102670000E94AB0B60E070E080E091E20E94AB0B47
:1026800060E070E080E093E2DF91CF911F910F91C5
:102690000C94AB0B89A59AA5ABA5BCA5BC01CD013B
:1026A00094600E94AB0B94CF8F929F92AF92BF9297
:1026B000CF92DF92EF92FF920F931F93CF93DF930E
:1026C000CDB7DEB7FC0122953295307F3227207FCF
:1026D00032272083318302951295107F1027007FC7
:1026E000102702831383E294F29420EFF222FE2457
:1026F000E222FE24E482F582C294D29430EFD32207
:10270000DC24C322DC24C682D782A294B29450EF88
:10271000B522BA24A522BA24A08AB18A82949294BE
:10272000A0EF9A2298248A229824828A938A888900
:10273000998982959295907F9827807F9827848B9E
:10274000958B8A899B8982959295907F9827807F27
:102750009827868B978B8C89808F41AB8D899E893A
:10276000AF89B88D81A392A3A3A3B4A3898D9A8DB9
:10277000AB8DBC8D85A396A3A7A3B0A78D8D9E8D91
:10278000AF8DB8A181A792A7A3A7B4A784E690E0D4
:10279000A0E0B0E0858F968FA78FB0A3118E128E28
:1027A000138E148E89A19AA182AF93AF12AA66AB41
:1027B00077ABDF91CF911F910F91FF90EF90DF905A
:1027C000CF90BF90AF909F908F9008952F923F929F
:1027D0004F925F926F927F928F929F92AF92BF9231
:1027E000CF92DF92EF92FF920F931F93CF93DF93DD
:1027F00000D01F92CDB7DEB78B839C830E94D90D8A
:10280000AB81BC8158968C91589784FD16C0249654
:10281000CDBFDEBFDF91CF911F910F91FF90EF9061
:10282000DF90CF90BF90AF909F908F907F906F90F0
:102830005F904F903F902F9008951C968D909C90A4
:102840001D975996CD90DD90ED90FC905C975D962C
:102850004D905D906D907C90909760E070E080E08E
:1028600092E20E94AB0BAB81BC81D696ED91FC91BC
:10287000D79740855185529542954F7045275F7097
:102880004527577060E070E0ABE0440F551F661FAE
:10289000771FAA95D1F782859385929582958F703F
:1028A00089279F7089279770A0E0B0E0BB618A01FB
:1028B0009B01082B192B2A2B3B2BC901B8010E9425
:1028C000AB0BAB81BC81D696ED91FC91D79764851B
:1028D0007585729562956F7067277F706727CB014A
:1028E000A0E0B0E0AC01BD010CE0440F551F661F35
:1028F000771F0A95D1F786859785929582958F7077
:1029000089279F708927A0E0B0E0BC618A019B0104
:10291000082B192B2A2B3B2BC901B8010E94AB0BAA
:10292000EB81FC8181A192A1A3A1B4A1BC01CD0145
:1029300094600E94AB0B69E070E080E09FE10E9430
:10294000AB0BAB81BC8118966D917C9119977F7709
:10295000CB01A0E0B0E0AC01BD013FE0440F551F4A
:10296000661F771F3A95D1F7EB81FC8182859385AD
:102970009F77A0E0B0E0B0648A019B01082B192B7F
:102980002A2B3B2BC901B8010E94AB0BAB81BC8148
:1029900018964D915C9119971C968D919C911D975D
:1029A000480F591F5F7760E070E0EFE0440F551F5C
:1029B000661F771FEA95D1F71A968D919C911B9708
:1029C0001E962D913C911F97820F931F9F77A0E039
:1029D000B0E0B0648A019B01082B192B2A2B3B2BFA
:1029E000C901B8010E94AB0B60E070E080E091E2A9
:1029F0000E94AB0BAB81BC8159964D915D916D915D
:102A00007C915C975D968D919D910D90BC91A02DD0
:102A1000481759076A077B07D8F060E070E080E04C
:102A200093E22496CDBFDEBFDF91CF911F910F912E
:102A3000FF90EF90DF90CF90BF90AF909F908F90DE
:102A40007F906F905F904F903F902F900C94AB0BC6
:102A5000F401B097E983FA83EB81FC8185A196A10B
:102A6000A7A1B0A5BC01CD0194600E94AB0BAB81C6
:102A7000BC81D1966C91862F90E0A0E0B0E0BC01C3
:102A8000CD0193600E94AB0B69E070E080E09FE1B4
:102A90000E94AB0BE981FA81BF0180E090E0A701C1
:102AA00096010E9458511201230151016201E12C4B
:102AB000F12C00E010E00E9485515901AB81BC81EE
:102AC00018968D919C91199740968A0D9B1D9F7722
:102AD000A0E0B0E02FE0880F991FAA1FBB1F2A9526
:102AE000D1F7EB81FC8142855385405F5F4F5F7773
:102AF00060E070E070648C019D01042B152B262B87
:102B0000372BC901B8010E94AB0BAB81BC811A966F
:102B10006D917C911B971E968D919C911F97680FCC
:102B2000791F605171097F77CB01A0E0B0E0B064FC
:102B3000EB81FC8120853185205F3F4F89809A8021
:102B4000820E931EE89497F8A12CB12C3FE0880CDC
:102B5000991CAA1CBB1C3A95D1F7BC01CD01682970
:102B600079298A299B290E94AB0B60E070E080E004
:102B700091E20E94AB0B51CFFC01458F568F678FBE
:102B800070A30895FC01418F528F638F748F089555
:102B9000FC01208D452B462B472B19F42F7E208FCF
:102BA00008952061208F0895FC01908D9062908F90
:102BB0000895FC01908D9F7D908F08950F931F9332
:102BC000CF93DF938C01C62F6CEF7FEF8FE290E005
:102BD0000E94670B2C2F30E0A90140515109E4E914
:102BE000E49F9001E59F300D1124205E3F4FAB0123
:102BF000BC01420F531F611D711D80E00E94140A29
:102C0000E801005A1F4F80E00E94570A8993C017BD
:102C1000D107C9F7DF91CF911F910F910C94500A02
:102C2000CF93DF93EC01FB013196DB019C9140E0F7
:102C300050E091110CC016C0DE01A90FB11D909794
:102C40002C9130E0420F531F9191992359F020EEBF
:102C5000290F203688F320E030E0420F531F919176
:102C60009111F5CFCA01DF91CF9108952F923F9234
:102C70004F925F926F927F928F929F92AF92BF928C
:102C8000CF92DF92EF92FF920F931F93CF93DF9338
:102C90005C01EB014A011901C801B70194600E946F
:102CA000AB0B63E070E080E09FE10E94AB0B65013D
:102CB000E894D7F8E12CF12C8FE0CC0CDD1CEE1C55
:102CC000FF1C8A95D1F72E01E89457F8612C712CDE
:102CD000689476F84C285D286E287F28C301B201DD
:102CE0000E94AB0B8A0C9B1CE89497F8A12CB12C8A
:102CF0009FE0880C991CAA1CBB1C9A95D1F768947C
:102D0000B6F8C101969587958C0F9D1F9F77A0E01F
:102D1000B0E0882A992AAA2ABB2AC501B4010E94D8
:102D2000AB0BC20DD31DDF77CE01A0E0B0E06894FD
:102D3000F6F8C82AD92AEA2AFB2AC701B6010E9456
:102D4000AB0BC501B4010E94AB0BC301B2010E94E1
:102D5000AB0BC701B6010E94AB0B60E070E080E0F6
:102D600091E2DF91CF911F910F91FF90EF90DF9053
:102D7000CF90BF90AF909F908F907F906F905F901B
:102D80004F903F902F900C94AB0B2F923F924F920D
:102D90005F926F927F928F929F92AF92BF92CF92EB
:102DA000DF92EF92FF920F931F93CF93DF93EC018B
:102DB0005B011A016901C801B70194600E94AB0B65
:102DC00063E070E080E09FE10E94AB0BD694C79473
:102DD000CA0CDB1CE894D7F8E12CF12C2E01E89406
:102DE00057F8612C712C9FE0440C551C661C771C15
:102DF0009A95D1F7689476F84C285D286E287F283C
:102E0000C301B2010E94AB0BC101969587958C0F4F
:102E10009D1F9F77A0E0B0E03FE0880F991FAA1F99
:102E2000BB1F3A95D1F7E894B7F84501A12CB12C16
:102E30006894B6F8882A992AAA2ABB2AC501B4013F
:102E40000E94AB0BC501B4010E94AB0BC20DD31D98
:102E5000DF77CE01A0E0B0E04FE0880F991FAA1FF6
:102E6000BB1F4A95D1F7B064C82AD92AEA2AFB2A9F
:102E7000C701B6010E94AB0BC301B2010E94AB0BAC
:102E8000C701B6010E94AB0B60E070E080E091E208
:102E9000DF91CF911F910F91FF90EF90DF90CF9036
:102EA000BF90AF909F908F907F906F905F904F906A
:102EB0003F902F900C94AB0B2F923F924F925F92CA
:102EC0006F927F928F929F92AF92BF92CF92DF923A
:102ED000EF92FF920F931F93CF93DF934C01EB017F
:102EE0005A011901C801B70194600E94AB0B63E05D
:102EF00070E080E09FE10E94AB0B21015694479463
:102F00004C0E5D1EE89457F8612C712CC4019F771C
:102F1000A0E0B0E02FE0880F991FAA1FBB1F2A95E1
:102F2000D1F7B0646C017D01C428D528E628F728C4
:102F3000C701B6010E94AB0BC501880D991D9F7793
:102F4000A0E0B0E03FE0880F991FAA1FBB1F3A9591
:102F5000D1F7B064482A592A6A2A7B2AC301B201F0
:102F60000E94AB0BC701B6010E94AB0BB694A794AD
:102F70006501C80CD91CE894D7F8E12CF12C5FE06E
:102F8000CC0CDD1CEE1CFF1C5A95D1F7C1018C0F37
:102F90009D1FEC01DF77CE01A0E0B0E0B064C82A4D
:102FA000D92AEA2AFB2AC701B6010E94AB0BC70146
:102FB000B6010E94AB0BC301B2010E94AB0B60E0F3
:102FC00070E080E091E2DF91CF911F910F91FF902F
:102FD000EF90DF90CF90BF90AF909F908F907F90B9
:102FE0006F905F904F903F902F900C94AB0B2F926F
:102FF0003F924F925F926F927F928F929F92AF9289
:10300000BF92CF92DF92EF92FF920F931F93CF93D5
:10301000DF93CDB7DEB72897CDBFDEBF8F8398870C
:103020001B0149835A832D833E839A013695279548
:1030300036952795369527952B833C83C801B70194
:1030400094600E94AB0B63E070E080E09FE10E941F
:10305000AB0BCD80DE80D694C794C20CD31CE89411
:10306000D7F8E12CF12C4F805884E89457F8612C64
:10307000712C2FE0440C551C661C771C2A95D1F747
:10308000689476F84C285D286E287F28C301B20129
:103090000E94AB0B89809A80969487948F81988543
:1030A000880E991EE89497F8A12CB12CB501A401C3
:1030B000EFE0440F551F661F771FEA95D1F7C10156
:1030C0009F774C01A12CB12C6894B6F8842A952ADC
:1030D000A62AB72AC501B4010E94AB0BC501B401F1
:1030E0000E94AB0B09811A812F813885020F131FB3
:1030F0004801E89497F8A12CB12CFFE0880C991CAA
:10310000AA1CBB1CFA95D1F76894B6F88C289D28A8
:10311000AE28BF28C501B4010E94AB0BC301B201A8
:103120000E94AB0BC501B4010E94AB0B60E070E0E4
:1031300080E091E20E94AB0B69E070E080E09FE1EB
:103140000E94AB0B8F8198852B813C81820F931F4E
:103150009F7789839A83A0E0B0E02FE0880F991FC2
:10316000AA1FBB1F2A95D1F78C299D29AE29BF29FB
:10317000BC01CD0190640E94AB0BB8018B819C8196
:10318000681B790B7F77CB01A0E0B0E08C019D013B
:103190004FE0000F111F221F331F4A95D1F78D8179
:1031A0009E81820D931D9F77A0E0B0E0B064BC01CA
:1031B000CD01602B712B822B932B0E94AB0B60E017
:1031C00070E080E091E22896CDBFDEBFDF91CF9125
:1031D0001F910F91FF90EF90DF90CF90BF90AF9035
:1031E0009F908F907F906F905F904F903F902F9027
:1031F0000C94AB0B2F923F924F925F926F927F9203
:103200008F929F92AF92BF92CF92DF92EF92FF92F6
:103210000F931F93CF93DF93CDB7DEB76097CDBFEA
:10322000DEBF8F87988B6B011A012D873E879A012D
:10323000ABEABAEA0E943E519695879589839A83B4
:10324000C801B70194600E94AB0B64E070E080E0BD
:103250009FE10E94AB0B6F8578897F77CB01A0E05F
:10326000B0E09C01AD016FE0220F331F441F551FDA
:103270006A95D1F72D833E834F8358874601E894A2
:1032800097F8A12CB12C6894B6F829013A01482886
:1032900059286A287B28C301B2010E94AB0B6981BF
:1032A0007A814F855889640F751F7F77CB01A0E025
:1032B000B0E09C01AD017FE0220F331F441F551F7A
:1032C0007A95D1F729873A874B875C87CA01B9017C
:1032D000682979298A299B290E94AB0B4D855E8537
:1032E000C40ED51EE894D7F8E12CF12C6894F6F8BA
:1032F00069857A858B859C856C297D298E299F29F6
:103300000E94AB0B6D817E818F8198856C297D2910
:103310008E299F290E94AB0BC301B2010E94AB0B07
:1033200060E070E080E091E20E94AB0B64E070E04E
:1033300080E09FE10E94AB0B8F859889820D931DE1
:103340008D839E83BC0129813A81621B730B7F7739
:10335000CB01A0E0B0E09C01AD01EFE0220F331FF4
:10336000441F551FEA95D1F729833A834B835C8329
:1033700029013A01482859286A287B28C301B2014B
:103380000E94AB0B4D815E815F77CA01A0E0B0E087
:103390009C01AD01FFE0220F331F441F551FFA951A
:1033A000D1F72D833E834F835887CA01B90168291D
:1033B00079298A299B290E94AB0B6D817E818F819F
:1033C00098856C297D298E299F290E94AB0B6981E4
:1033D0007A818B819C816C297D298E299F290E946D
:1033E000AB0BC301B2010E94AB0B60E070E080E068
:1033F00091E26096CDBFDEBFDF91CF911F910F911B
:10340000FF90EF90DF90CF90BF90AF909F908F9004
:103410007F906F905F904F903F902F900C94AB0BEC
:103420002F923F924F925F926F927F928F929F92D4
:10343000AF92BF92CF92DF92EF92FF920F931F93C2
:10344000CF93DF93CDB7DEB72897CDBFDEBF6C013A
:103450006F8378871A012D833E83C801B70194607A
:103460000E94AB0B64E070E080E09FE10E94AB0B38
:10347000B6017F77CB01A0E0B0E09C01AD018FE009
:10348000220F331F441F551F8A95D1F729833A8392
:103490004B835C838F809884E89497F8A12CB12C9F
:1034A0006894B6F829013A01482859286A287B28E7
:1034B000C301B2010E94AB0BC20CD31CE894D7F835
:1034C000E12CF12C9FE0CC0CDD1CEE1CFF1C9A952E
:1034D000D1F7C701B601682979298A299B290E9459
:1034E000AB0B4F8158858D819E81480F591F5F77A7
:1034F0004A01A12CB12C6894B6F8C701B60168291D
:1035000079298A299B290E94AB0B69817A818B8159
:103510009C81682979298A299B290E94AB0BC301C8
:10352000B2010E94AB0B60E070E080E091E228966F
:10353000CDBFDEBFDF91CF911F910F91FF90EF9034
:10354000DF90CF90BF90AF909F908F907F906F90C3
:103550005F904F903F902F900C94AB0B2F923F9227
:103560004F925F926F927F928F929F92AF92BF9293
:10357000CF92DF92EF92FF920F931F93CF93DF933F
:10358000CDB7DEB76297CDBFDEBF898B9A8B4B017B
:103590001A015901C801B70194600E94AB0B64E0A5
:1035A00070E080E09FE10E94AB0B69897A897F77A8
:1035B000CB01A0E0B0E09C01AD018FE0220F331FF2
:1035C000441F551F8A95D1F72D833E834F8358871B
:1035D000250156944794480C591CE89457F8C201A9
:1035E000A0E0B0E089879A87AB87BC8750642D87BD
:1035F0003E874F87588B6C017D01C22AD32AE42A6B
:10360000F52AC701B6010E94AB0B210156944794DD
:10361000A989BA894A0E5B1EE89457F8612C712C6F
:103620003FE0440C551C661C771C3A95D1F7B40159
:103630007F77CB01A0E0B0E09C01AD01506429830D
:103640003A834B835C83CA01B901642975298629B1
:1036500097290E94AB0B8A0C9B1CE89497F8A12C2D
:10366000B12CD501C401B064BC01CD016429752918
:10367000862997290E94AB0BC701B6010E94AB0BAC
:1036800060E070E080E091E20E94AB0B64E070E0EB
:1036900080E09FE10E94AB0B89859A85AB85BC8554
:1036A000482A592A6A2A7B2A689476F8C301B2010B
:1036B0000E94AB0BA989BA89A20DB31DBF776D011A
:1036C000E12CF12C4FE0CC0CDD1CEE1CFF1C4A95CC
:1036D000D1F769817A818B819C816C297D298E2922
:1036E0009F290E94AB0BD501C4018C299D29AE29CD
:1036F000BF29BC01CD0190640E94AB0BC301B20194
:103700000E94AB0B60E070E080E091E20E94AB0BA6
:1037100063E070E080E09FE10E94AB0B6D817E81F1
:103720008F81988529813A814B815C81622B732B33
:10373000842B952B0E94AB0B6D857E858F85988998
:10374000682979298A299B290E94AB0B60E070E0E7
:1037500080E091E26296CDBFDEBFDF91CF911F91F5
:103760000F91FF90EF90DF90CF90BF90AF909F9020
:103770008F907F906F905F904F903F902F900C9420
:10378000AB0B2F923F924F925F926F927F928F92EC
:103790009F92AF92BF92CF92DF92EF92FF920F93E0
:1037A0001F93CF93DF93CDB7DEB76697CDBFDEBF54
:1037B0001C01698B7A8B4D8B5E8B29833A83C80100
:1037C000B70194600E94AB0B63E070E080E09FE182
:1037D0000E94AB0B6101E894D7F8E12CF12C8FE04B
:1037E000CC0CDD1CEE1CFF1C8A95D1F769897A8907
:1037F0007F77CB01A0E0B0E09C01AD015064298748
:103800003A874B875C8729013A014C285D286E284E
:103810007F28C301B2010E94AB0B8D899E899695CA
:103820008795820D931D9F77A0E0B0E09C01AD01CC
:103830006FE0220F331F441F551F6A95D1F72D8368
:103840003E834F83588789809A80969487944989CC
:103850005A89840E951EE89497F8C401A0E0B0E060
:103860008D879E87AF87B88B8D809E80AF80B88410
:10387000882A992AAA2ABB2A6894B6F8C501B401F5
:103880000E94AB0BA989BA8929813A81A20FB31F83
:10389000BF77CD01A0E0B0E089839A83AB83BC837E
:1038A0006894F6F8C82AD92AEA2AFB2AC701B60181
:1038B0000E94AB0BC501B4010E94AB0BC301B20166
:1038C0000E94AB0BC701B6010E94AB0B2D813E815C
:1038D0004F81588589859A85AB85BC85282B392BE6
:1038E0004A2B5B2B298B3A8B4B8B5C8BCA01B90122
:1038F0000E94AB0B6D897E89620D731D7F77CB01B2
:10390000A0E0B0E02C013D01EFE0440C551C661C2A
:10391000771CEA95D1F7530142016894B6F82D85DA
:103920003E854F855889822A932AA42AB52AC50143
:10393000B4010E94AB0BC980DA80EB80FC806894F4
:10394000F6F88D819E81AF81B885C82AD92AEA2AE6
:10395000FB2AC701B6010E94AB0BC501B4010E944E
:10396000AB0B69897A898B899C890E94AB0BC70153
:10397000B6010E94AB0B69857A858B859C8564298D
:103980007529862997290E94AB0B89819A81AB8181
:10399000BC8184299529A629B729BC01CD01906451
:1039A0000E94AB0B60E070E080E091E26696CDBFD4
:1039B000DEBFDF91CF911F910F91FF90EF90DF90CD
:1039C000CF90BF90AF909F908F907F906F905F90BF
:1039D0004F903F902F900C94AB0BEBE7F6E2808377
:1039E00091834283538365837683148208954F9233
:1039F0005F926F927F928F929F92AF92BF92CF927F
:103A0000DF92EF92FF920F931F93CF93DF93EC011E
:103A1000D22E270138014883598361157105D1F1F0
:103A2000FB0183849484A584B6848F829886A986BA
:103A3000BA864A825B826C827D82DE82CF86AD2D21
:103A4000B0E0A30192010E944D51861A970AA80A7C
:103A5000B90A8B869C86AD86BE86AC2DB0E00E94EE
:103A60004D51860E971EA81EB91E888A998AAA8A69
:103A7000BB8ADF91CF911F910F91FF90EF90DF9064
:103A8000CF90BF90AF909F908F907F906F905F90FE
:103A90004F900895FA01808191810E94B2504B01AC
:103AA0005C016F83788789879A87C3CF8F929F92B3
:103AB000AF92BF92CF92DF92EF92FF92CF93FC0131
:103AC000C62F678782809380A480B580A681B0E0EE
:103AD000A50194010E944D51C780D084E184F284F5
:103AE000C61AD70AE80AF90AC386D486E586F68696
:103AF000AC2FB0E00E944D51C60ED71EE81EF91E35
:103B0000C08AD18AE28AF38ACF91FF90EF90DF904A
:103B1000CF90BF90AF909F908F900895CF92DF92FB
:103B2000EF92FF920F931F93DC015096CD90DD90A2
:103B3000ED90FC9053972C0D3D1D4E1D5F1D01E037
:103B400010E08D919C910E946C01862F1F910F9126
:103B5000FF90EF90DF90CF900895CF92DF92EF9299
:103B6000FF920F931F93DC015096CD90DD90ED9066
:103B7000FC9053972C0D3D1D4E1D5F1D01E010E084
:103B80008D919C910E940102862F1F910F91FF90B1
:103B9000EF90DF90CF9008958093842690938526B0
:103BA00008958F929F92AF92BF92CF92DF92EF9241
:103BB000FF92CF93DF93EC018AA99BA92CA53DA589
:103BC00040E050E0A0E0B0E0880F991FAA1FBB1FA3
:103BD000880F991FAA1FBB1F880F991FAA1FBB1F01
:103BE000880F991FAA1FBB1F880F991FAA1FBB1FF1
:103BF00069017A0161E0C61AD108E108F108BC0147
:103C0000CD016C0D7D1D8E1D9F1D0E94145149011B
:103C10005A012FA938AD2115310509F43FC040E004
:103C200050E0CCA8DDA8C114D10409F444C0E12CB3
:103C3000F12CA9A9B0E00E944D512FA538A9820E00
:103C4000931EA11CB11CDC01CB01880D991DAA1D7E
:103C5000BB1DA7019601281B390B4A0B5B0BCA0140
:103C6000B9012EA530E040E050E00E941451253FFC
:103C70006FE036074105510540F1253F3F4F4105B3
:103C8000510508F182E0DF91CF91FF90EF90DF9036
:103C9000CF90BF90AF909F908F900895FE01EB5B07
:103CA000FF4F2081318142815381CCA8DDA8C1140E
:103CB000D10409F0BCCFFE01EF5BFF4FC080D18083
:103CC000E280F380B6CF81E0DECF80E0DCCF8F9260
:103CD0009F92AF92BF92EF92FF920F931F93CF9359
:103CE000DF93CDB7DEB7D250CDBFDEBF7C01CB01B5
:103CF000D7016D937C9301E010E020E030E0A90152
:103D0000BE016F5F7F4F0E946C01D70191968AE5DB
:103D1000FE01319601900D928A95E1F7B7016E5F31
:103D20007F4FF701B49688E0DB0101900D928A95F0
:103D3000E1F7A701455F5F4FF701E859FF4F8BE0BF
:103D4000DA0101900D928A95E1F7C7014796F701D4
:103D5000ED58FF4F28E0DC0101900D922A95E1F724
:103D600020E2F701278FB0962291203221F41082B1
:103D7000E817F907C9F720E2D7011A962C93FA0140
:103D80002291203221F41082E617F707C9F720E2CA
:103D9000F701268BDC018E91803221F41C924A17A8
:103DA0005B07C9F7D701D2968D919C91D3979C96CA
:103DB0002D913C919D9740E050E0A0E0B0E0880F4D
:103DC000991FAA1FBB1F880F991FAA1FBB1F880F0F
:103DD000991FAA1FBB1F880F991FAA1FBB1F880FFF
:103DE000991FAA1FBB1F49015A01E1E08E1A9108D1
:103DF000A108B108BC01CD01680D791D8A1D9B1D6C
:103E00000E94145149015A01D701D7962D913C9136
:103E1000D89721153105B9F5F701EB5BFF4F2081EC
:103E2000318142815381F701E558FF4FD701D19687
:103E30008C91A82FB0E00E944D51D7019F962D91F3
:103E40003C91D097820E931EA11CB11CDC01CB01CA
:103E5000880D991DAA1DBB1D80839183A283B38306
:103E6000C7010E94D11DF70180A3DE5FCDBFDEBF79
:103E7000DF91CF911F910F91FF90EF90BF90AF9086
:103E80009F908F90089540E050E0CDCF8F929F9209
:103E9000AF92BF92CF92DF92EF92FF920F931F9358
:103EA000CF93DF93CDB7DEB7D250CDBFDEBF7C015D
:103EB0006901FC0180A1813009F45BC0CB01BA012A
:103EC000660F771F881F991F660F771F881F991F1E
:103ED000F70124A535A540E050E00E9414514B01A4
:103EE0005C01F70187A590A9280F391F411D511DBD
:103EF00001E010E0BE016F5F7F4F808191810E94E1
:103F00006C01F6011082F70120A1E1E0F0E0EC0F76
:103F1000FD1FE80DF91D213009F180819181A281F9
:103F2000B381BC01CD019F70683FFFEF7F078F0712
:103F3000FFE09F0718F021E0F6012083DE5FCDBF90
:103F4000DEBFDF91CF911F910F91FF90EF90DF9037
:103F5000CF90BF90AF909F908F90089560817181B6
:103F600080E090E0683FFFEF7F078105910530F327
:103F7000E3CFCB01BA01660F771F881F991FA8CF27
:103F8000EF92FF920F931F93CF93DF93EC017B018E
:103F9000E881F9818D859E85AF85B8899C01AD0149
:103FA0002250310941095109A6A5B0E00E944D51A6
:103FB000DF01A558BF4F4C850D911D912D913C916E
:103FC000040F111D211D311DA9019801260F371F56
:103FD000481F591F01E010E0B701808191810E94C4
:103FE0006C018C858F5F8F718C87882341F0898964
:103FF000DF91CF911F910F91FF90EF9008954D8524
:104000005E856F8578899E012F5E3F4F88819981FB
:104010000E94461F6D877E878F87988B8989DF91E5
:10402000CF911F910F91FF90EF900895CF92DF9263
:10403000EF92FF921F93CF93DF93EC01DA018C9103
:104040008130B1F1823059F520912A2430912B240E
:104050002D30310508F49FC02D50310920932A24BA
:1040600030932B24E6E0F0E27B01E20EF31E23E125
:1040700030E28191BE01680F711DDB019C9180EEE1
:10408000890F803608F090E2D7019D937D012E17AD
:104090003F0779F788818F73813009F46DC080E024
:1040A000DF91CF911F91FF90EF90DF90CF90089517
:1040B000188116FFF4CF1F73E6E0F0E26F0120E0F5
:1040C000D6018D916D017E01E80EF11CD7018D9115
:1040D0009C91892B09F45BC02F5F2D3089F78DE00F
:1040E00090E03DE0C32ED12CE12EF12CB1E0EB1A93
:1040F000F1083DE03E9DD0013F9DB00D11247D01B2
:10410000E80EF91E3FEFE316F10411F008F051C07C
:10411000CB018E0D9F1DDC011C92D701AC19BD098E
:10412000A0932A24B0932B242223C1F07D01E60E14
:10413000F71E215030E0295F3F4D8191BE01680F8D
:10414000711DDB019C9180EE890F803608F090E2B2
:10415000D7019D937D012E173F0779F7113061F04C
:1041600082E0DA018C9380E0DF91CF911F91FF9084
:10417000EF90DF90CF90089581E0FA018083DF9186
:10418000CF911F91FF90EF90DF90CF900895C22EB6
:10419000D12CC601A9CF20918426309185264FE1EC
:1041A00050E061E070E088E891E20E94DC5680E037
:1041B00077CF209184263091852649E150E061E057
:1041C00070E08EE691E20E94DC5680E069CFCF92EB
:1041D000DF92EF92FF920F931F93CF93DF93EC0147
:1041E000E881F9818A81DF01A558BF4F4D915D912A
:1041F0006D917C916A017B01C80ED11CE11CF11C00
:104200008A859B85AC85BD859C01AD012250310915
:1042100041095109A6A5B0E00E944D51A7019601A0
:10422000260F371F481F591FBE016D5E7F4F01E0EB
:1042300010E0808191810E946C018A819B81AC8118
:10424000BD810196A11DB11D8F719927AA27BB279A
:104250008A839B83AC83BD83892B8A2B8B2B79F438
:104260004A855B856C857D859E01225F3F4F8881F5
:1042700099810E94461F6A877B878C879D878E85E0
:10428000DF91CF911F910F91FF90EF90DF90CF9032
:1042900008950F931F93CF93DF93EC018B018E81D1
:1042A0009F81A885B9850097A105B10539F4CE0194
:1042B0000E94E7208E819F81A885B985AE014D5E61
:1042C0005F4F9C01220F331F22953295307F32279A
:1042D000207F3227240F351FF80120833183019678
:1042E000A11DB11D8F709927AA27BB278E839F839D
:1042F000A887B9878E85DF91CF911F910F9108957F
:10430000FC016083718382E090E0A0E0B0E08787E9
:10431000908BA18BB28B1682178210861186128227
:1043200013821482158282879387A487B5871686A5
:104330000895411551056105710521F442E050E0F1
:1043400060E070E0FC014787508B618B728B0895B1
:10435000CF93DF93EC0189858F9388858F938F812D
:104360008F938E818F9388EA91E29F938F938091B0
:1043700085268F93809184268F930E9490568D81FD
:104380008F938C818F938B818F938A818F938CEB0A
:1043900091E29F938F93809185268F9380918426BD
:1043A0008F930E9490568DB79EB740968DBF9EBF4B
:1043B000DF91CF9108958F929F92AF92BF92CF924B
:1043C000DF92EF92FF920F931F93CF93DF931F9291
:1043D000CDB7DEB78C016A017B01FC01118A4A016D
:1043E0005B018EE0B694A794979487948A95D1F751
:1043F000CA019F73892F86958487CA01917082872D
:104400009387428153816481758145875687678789
:10441000708B168A178A108E118EC28ED38EE48E00
:10442000F58E81149104A104B104A9F1C12CD12C01
:1044300076010AC0FFEFCF1ADF0AEF0AFF0A8C14D9
:104440009D04AE04BF0409F19E012F5F3F4FF801A8
:10445000808191810E94461FAB01BC01F801458714
:1044600056876787708B2981222321F380E00F9084
:10447000DF91CF911F910F91FF90EF90DF90CF9040
:10448000BF90AF909F908F900895F8018189882305
:1044900011F081E0ECCFB801625E7F4FC8010E944D
:1044A000C01F81E0E4CFEF92FF920F931F93FB01B7
:1044B00060817181FC016083718322833383448333
:1044C0005583258736874787508BE682F78200879A
:1044D000118740E050E0BA011F910F91FF90EF90DB
:1044E0000C94DB212F923F924F925F926F927F92BA
:1044F0008F929F92AF92BF92CF92DF92EF92FF92F4
:104500000F931F93CF93DF9300D000D0CDB7DEB7CA
:104510001C012A013B0129833A83F9014681578115
:1045200060857185028D138D248D358DE12CF12CE4
:10453000812C912C5401C12C82E0D82E7E96EB83E5
:10454000FC8315C04701A12CB12CE981FA814814E4
:1045500059046A047B0409F471C04681578160855F
:104560007185401751076207730709F488C0E98114
:10457000FA8182859385401B510B620B730B4416A5
:1045800055066606770610F4B301A2019301820175
:10459000081919092A093B090417150726073707BF
:1045A00010F4B901A8019601281B390B4D835E83D5
:1045B0002417350710F42D833E83BC01625E7F4FC4
:1045C00029813A81620F731F4D815E81C1018E0D79
:1045D0009F1D0E94BA55E981FA81828593852D81BC
:1045E0003E81820F931F917082879387428D538DF6
:1045F000648D758D8A019B01ED81FE810E0F1F1F59
:10460000211D311DE981FA81028F138F248F358F8F
:104610004D815E81E40EF51E892B09F093CF8189CF
:10462000811190CF6B817C81CF010E94C01FE981F5
:10463000FA81028D138D248D358D84CF86819781EB
:10464000A085B18580179107A207B307C1F0C50106
:10465000B4012696CDBFDEBFDF91CF911F910F91A0
:10466000FF90EF90DF90CF90BF90AF909F908F9092
:104670007F906F905F904F903F902F90089581E0D2
:10468000E981FA81818BE3CF9F92AF92BF92CF9263
:10469000DF92EF92FF920F931F93CF93DF9300D09F
:1046A000CDB7DEB78C01BC01685F7F4FFB0188E0AE
:1046B0009291903209F048C08150D1F7E12CF12C51
:1046C000AA24A394B12C38E0C32ED12CF801808504
:1046D000803209F448C08185803209F44BC082855C
:1046E000803209F449C083E0982E43E050E0CE01C7
:1046F00001960E94BA55FE013196D801AA0DBB1D44
:104700009E012C5F3F4F81918D932E173F07D9F764
:10471000F801EE0DFF1D911010C010822396CDBF41
:10472000DEBFDF91CF911F910F91FF90EF90DF904F
:10473000CF90BF90AF909F9008958EE28083F80154
:10474000EC19FD091486EACF98E0C92EC81AD12CBD
:10475000A9E0B0E05D01AC18BD0888E090E07C0104
:10476000EC18FD08B3CF89E097EF992E980E492DEC
:1047700050E0BDCF8AE0F8CF8BE0F6CFBF92CF926A
:10478000DF92EF92FF920F931F93CF93DF9300D0AE
:10479000CDB7DEB78C017B016A0181E08B83B12C40
:1047A00008C09081953EB1F5D8011E968C9181117B
:1047B00023C0BE016F5F7F4FC8010E944921E9817C
:1047C000FA81D601ED93FC938385982F9F739F30D8
:1047D00041F78081853E41F3AE014D5F5F4FB701E8
:1047E000CF010E9416208823F9F2BB24B394D8018C
:1047F0001E968C918823E9F280E02396CDBFDEBF20
:10480000DF91CF911F910F91FF90EF90DF90CF90AC
:10481000BF900895887131F4992371F3BB2019F189
:1048200082E0EBCF803121F0883099F184E0E5CF50
:10483000992311F3BB2011F081E0DFCF8BE0D7018A
:1048400001900D928A95E1F780E2D7011B968C9337
:10485000F7013C968291803279F71082EE15FF05C0
:10486000C9F781E0CACF8BE0D70101900D928A95FC
:10487000E1F780E2F70183873C968291803221F450
:104880001082EE15FF05C9F7C7010E94442382E09C
:10489000B4CF8BE0D70101900D928A95E1F780E2C9
:1048A000F70183873C968291803221F41082EE15C5
:1048B000FF05C9F783E0A1CF4F925F926F927F927D
:1048C0009F92AF92BF92CF92DF92EF92FF920F939F
:1048D0001F93CF93DF93CDB7DEB7C250D340CDBF88
:1048E000DEBF6C015B01FC0187859089A189B289DB
:1048F0001682178210861186128213821482158204
:1049000082879387A487B5871686912C8E010F5FC7
:104910001D4FAE014F5F5C4FB801C6010E94BE2320
:10492000813009F458C0823009F080C0F80101904C
:104930000020E9F731977F01E01AF10AF5E0EF1660
:10494000F10438F344E050E060ED71E2C7010497F0
:10495000800F911F0E94EE55892BD9F6A7014F5F5A
:104960005F4FB801CE0101960E94BA55CF5FDC4F70
:10497000E881F981C150D34084899589A0E0B0E0F5
:10498000DC0199278827428D538D60E070E0842BED
:10499000952BA62BB72BCF5FDE4F88839983AA83F5
:1049A000BB83C150D140848D958DA68DB78DCB5FD3
:1049B000DE4F88839983AA83BB83C550D140292DBC
:1049C00030E040E050E0BE016F5F7F4FC5010E94C4
:1049D000AD1D93949ECFB801CE0101960E94D35590
:1049E000CF5FDC4FE881F981C150D340848995893C
:1049F000A0E0B0E0DC0199278827428D538D60E06C
:104A000070E0842B952BA62BB72BCF5FDE4F8883CE
:104A10009983AA83BB83C150D140CB5FDE4F1882FC
:104A200019821A821B82C550D140C9CF811171CF22
:104A3000892D877008E0081B492C512C612C712CA2
:104A40007301620110E01982A7019601BE016F5F38
:104A50007F4FC5010E94AD1D1F5F8FEFC81AD80A96
:104A6000E80AF80A0113EFCFC301B201CE5FDC4FB1
:104A7000CDBFDEBFDF91CF911F910F91FF90EF90DF
:104A8000DF90CF90BF90AF909F907F906F905F909E
:104A90004F900895CF92DF92EF92FF920F931F9362
:104AA000CF93DF93CDB7DEB7C250D140CDBFDEBFCD
:104AB0008C016B017A01FC0187859089A189B289FB
:104AC0001682178210861186128213821482158232
:104AD00082879387A487B5871686AE014F5F5E4FA6
:104AE000BE016F5F7F4FC8010E94BE239FEF980FEA
:104AF0009230F0F4B701CE0101960E94CA55892B7D
:104B000061F7CF5FDE4F88819981C150D140F601B6
:104B10008083918381E0CE5FDE4FCDBFDEBFDF912A
:104B2000CF911F910F91FF90EF90DF90CF9008955C
:104B30008111D3CFF0CFCF92DF92EF92FF920F93FC
:104B40001F93CF93DF931F921F92CDB7DEB78C01D7
:104B5000F62EE72ED42EC52E462F572FBE016F5F9F
:104B60007F4F0E944A258823F1F1E981FA818385EC
:104B70008871803139F584899589A0E0B0E0DC0145
:104B800099278827428D538D60E070E0842B952B08
:104B9000A62BB72B0097A105B10521F482E090E088
:104BA000A0E0B0E0F8018787908BA18BB28B0F90CB
:104BB0000F90DF91CF911F910F91FF90EF90DF90B9
:104BC000CF900895EF92FF9285ED91E29F938F939E
:104BD000CF92DF920E9490560F900F900F900F90FF
:104BE0000F900F90E4CFEF92FF928EEE91E2EECF16
:104BF0008F929F92AF92BF92CF92DF92EF92FF92ED
:104C00000F931F93CF93DF931F921F92CDB7DEB701
:104C10008C016B01F42EE52EBE016F5F7F4FC60144
:104C20000E944A25882309F456C0E981FA818385C8
:104C3000887121F1EF92FF9284E092E29F938F932B
:104C4000809185268F93809184268F930E94905621
:104C50000F900F900F900F900F900F9080E00F909B
:104C60000F90DF91CF911F910F91FF90EF90DF9008
:104C7000CF90BF90AF909F908F900895848C958C2B
:104C8000A68CB78C84899589A0E0B0E0DC019927D7
:104C90008827428D538D60E070E0842B952BA62BE6
:104CA000B72BF60120813181F80120833183828383
:104CB0009383A483B58385879687A787B08B8682E5
:104CC0009782A086B18640E050E0BA01C8010E94F8
:104CD000DB2181E0C4CFEF92FF928EEE91E2AECF66
:104CE000DF92EF92FF920F931F93CF93DF93EC012C
:104CF0007B018A01D22E4AE050E06DE270E00E9412
:104D0000C3551A86DD2011F084E68883A701477712
:104D1000577040235123FE01CE01099662E737E721
:104D200028E742FD618341FD328340FD2383529594
:104D300042954F7045275F7045273396E817F9076E
:104D400081F7DF91CF911F910F91FF90EF90DF904E
:104D500008952F923F924F925F926F927F928F921F
:104D60009F92AF92BF92CF92DF92EF92FF920F93FA
:104D70001F93CF93DF93CDB7DEB7CF50D140CDBFD8
:104D8000DEBF6C01C25FDE4F6883CE50D140C15F91
:104D9000DE4F7883CF50D140FC0187859089A1896F
:104DA000B2891682178210861186128213821482AB
:104DB000158282879387A487B5871686CE010196D0
:104DC0005C014E0191E0890E991E48E1242E42E2D9
:104DD000342EAE01445F5E4FB501C6010E94BE2372
:104DE0009FEF980F9230C8F08111F3CFC15FDE4F73
:104DF000CDBFDEBFDF91CF911F910F91FF90EF905C
:104E0000DF90CF90BF90AF909F908F907F906F90EA
:104E10005F904F903F902F900895C45FDE4FE881E0
:104E2000F981CC50D1400685178538017694679476
:104E3000729462949FE06922672479226724169510
:104E400016951695E088F188270156944794529458
:104E500042942FE04222452452224524282F2170DB
:104E600044E454E064E474E0C4010E947026BF92FC
:104E7000AF920F71000F1F920F93862D8F731F92A9
:104E80008F931F921F93C701892F9927869584546A
:104E9000984F9F938F938E2D8F711F928F93842D98
:104EA0008F701F928F93C45FDE4FE881F981CC50E1
:104EB000D140878D8F93868D8F93858D8F93848D31
:104EC0008F939F928F923F922F92C15FDE4FE88126
:104ED000CF50D140EF93C25FDE4FF881CE50D1402A
:104EE000FF930E949056CDBFDEBF73CF2F923F92AB
:104EF0004F925F926F927F928F929F92AF92BF92EA
:104F0000CF92DF92EF92FF920F931F93CF93DF9395
:104F1000CDB7DEB76397CDBFDEBF782E692E2B01EC
:104F20004A011801EA8AFB8A49A54A875AA55B8784
:104F30008BA58C87ACA5AD87BDA5BE87EEA5EF87F9
:104F4000FFA5F88B48A9498B2A831B821C821D82EE
:104F50001E821F821886198630E040E050E060E033
:104F600070E080E090E0AA84BB84CC84DA2EEB2E43
:104F7000FE2E0F2F19890E94375249F040F0AA8265
:104F8000BB82CC82AD83BE83EF83F88719872A81E9
:104F90003B814C815D816E817F8188859985A0E010
:104FA0000E94405209F463C0D4012C9111963C91A7
:104FB000119712964C91129713965C911397149631
:104FC0006C91149715967C91159716968C9116975F
:104FD00017969C91CA80DB80E12CF12CE9E4AE2E7F
:104FE000E2E2BE2E8E010F5F1F4FF2011995182FBE
:104FF0008981882309F474C01F921F93BF92AF92D6
:105000006F927F920E949056D101ED91FC91119781
:10501000CF0101968D939C930F900F900F900F905E
:105020000F900F90103230F01F3721F080E8810F81
:10503000803108F41EE21083F40120813181428125
:1050400053816481758186819781A1E00E942252FB
:10505000208331834283538364837583868397835C
:10506000FFEFEF1AFF0ACE14DF0409F0BBCF8A81ED
:105070009B819C01220F331F820F931FAA89BB893A
:105080002D913C911197F901E81BF90BED93FC93DD
:105090002A853B854C855D856E857F8588899989C4
:1050A000AA80BB80CC80DD80EE80FF8008851985DA
:1050B0000E942E526396CDBFDEBFDF91CF911F912C
:1050C0000F91FF90EF90DF90CF90BF90AF909F90A7
:1050D0008F907F906F905F904F903F902F900895AA
:1050E000272D362D43E050E061E070E08FE492E23E
:1050F0000E94DC56D101ED91FC911197CF010196F0
:105100008D939C93BEE2B08397CF2F923F924F92A4
:105110005F926F927F928F929F92AF92BF92CF9247
:10512000DF92EF92FF920F931F93CF93DF93CDB750
:10513000DEB7C154D109CDBFDEBF4C016DA77EA73C
:10514000BE2DFF2DE02F1BAB2CAB3DAB4EAB5FABB1
:1051500068962FAD689769963FAD69976A964FAD8F
:105160006A976B965FAD6B976C96AFAD6C976D96CB
:105170005FAC6D976E964FAC6E976F963FAC6F9726
:10518000A3961FADA39718AFA4966FADA49769AF70
:10519000A5967FADA5977AAFA6968FADA6978DAF52
:1051A000A7969FADA7979EAFA8961FADA8971FAFD4
:1051B000A9966FADA99721966FAF2197AA967FAD5B
:1051C000AA9722967FAF2297E9A2FAA20BA38BA9F6
:1051D0008CA39CA99DA31DA91EA36EA96FA37FA943
:1051E00078A7A0961FADA097812F90E0BC01660F15
:1051F000771F860F971FA1966FACA197712C860D14
:10520000971DA2961FADA297189FB001199F700D10
:1052100011246BAF7CAF6A2F752D842D932DA1E0E7
:105220000E942252AE2CBF2CC02EDBA8ECA8FDA8F9
:105230000EA91FA90E942E5219012A016FA778AB4F
:1052400089AB9AAB2B2F3F2F4E2F5D2DB701C80195
:10525000A8ACB9ACCAACDDACEEACFFAC21960FADDE
:10526000219722961FAD22970E9419525101620187
:10527000EFA4F8A809A91AA90E9419522BAB3CABBC
:105280004DAB5EAB6FAB78AF89AF9AAF6BAD7CAD1A
:1052900069A77AA781E090E08C0F9D1F8BA79CA740
:1052A0002BA93CA94DA95EA96FA978AD89AD9AAD8E
:1052B00051016201EFA4F8A809A91AA90E942E526F
:1052C0005F934F933F932F9300E20E94FD515F93B2
:1052D0004F933F932F9363E572E27F936F939F9277
:1052E0008F920E949056CDBFDEBFA2967FADA2974F
:1052F000772309F443C0D12CB72EFFA4E8A8A9A8AE
:10530000CAA8CF92AF92EF92FF925F924F923F92D4
:105310002F92CE0189967C018E01055D1F4FA096CC
:105320002FADA097AE014F5D5F4F6DA57EA5C40167
:105330000E94762719012A01F62EE72EA82EC92EE3
:10534000CDBFDEBF6114710461F000E010E0B40174
:1053500080E290E00E94A0560F5F1F4F06151705D0
:10536000B1F789A59AA58619970989A79AA7D39411
:10537000BD10C7CFFFA6E8AAA9AACAAAEBA5FCA59B
:105380001082C9A4DAA4C114D10461F000E010E0D5
:10539000B40180E290E00E94A0560F5F1F4FC0163C
:1053A000D106B1F781E090E08C0F9D1F9F938F9302
:1053B00065E472E27F936F939F928F920E94905662
:1053C0000F900F900F900F900F900F909101A201EE
:1053D0006FA578A989A99AA9A0E00E94405209F076
:1053E00055CFCF5BDF4FCDBFDEBFDF91CF911F9198
:1053F0000F91FF90EF90DF90CF90BF90AF909F9074
:105400008F907F906F905F904F903F902F90089576
:10541000E0E5F0E09081282F209592239083908101
:10542000892308950F93CF93DF931F92CDB7DEB7F3
:105430009FB79983F8941BBE862B21E430E0F901D5
:1054400008ED04BF808389818FBF0F90DF91CF91DA
:105450000F9108950F93CF93DF931F92CDB7DEB7CF
:10546000A0E4B0E09C912FB72983F8941BBE987FED
:10547000982B20E430E0F90108ED04BF9083998176
:105480009FBF9C9189230F90DF91CF910F91089539
:105490008823A9F0813089F5809150008460809341
:1054A000500060E080E00E94122A8091510082FF4B
:1054B000FCCF82E00E942A2A82E00C94082A809184
:1054C000500082608093500060E080E00E94122AC9
:1054D0008091510081FFFCCF81E00E942A2A8091B7
:1054E00050008460809350008091510082FFFCCF77
:1054F0008091600081608093600008952091D000C9
:1055000020682093D00000002091D0002F7D2093B0
:10551000D0002091D000207F21602093D000611521
:10552000710549F0FC01680F791F81918093D300C8
:10553000E617F707D1F78091D10081608093D10001
:105540008091D10080FDFCCF8091D4002091D500C6
:105550009091D000907F9093D00090E0922B08958E
:105560009FEF940F442351F0DB01ED918E27E82F3C
:10557000F0E0EE59FD4D80819150B8F708951F92EB
:105580000F920FB60F9211240BB60F928F93EF93D9
:10559000FF93E0ECF1E085858C7F8587FF91EF91AB
:1055A0008F910F900BBE0F900FBE0F901F9018950C
:1055B000682F70E040E086E896E20C946F2BBC0107
:1055C00086E896E20C94422C70E0762F6627680FEE
:1055D000711D86E896E20C94422C86E896E20C94C3
:1055E000B62C86E896E20E94E12C91E0811190E0D1
:1055F000892F0895CF92DF92EF92FF920F931F931E
:10560000CF93DF936C017B010FE613E2C2E6D3E296
:1056100086E896E20E94E12C81111EC086E896E29F
:105620000E94B62C992309F11F929F9399279F936B
:105630008F93FF92EF92DF93CF93DF92CF920E94EE
:1056400090568DB79EB70A968DBF9EBF86E896E2AC
:105650000E94E12C882311F3DF91CF911F910F91CC
:10566000FF90EF90DF90CF9008951F928F93FF925D
:10567000EF921F930F93DF92CF920E9490568DB7B7
:105680009EB708968DBF9EBFC3CF67EA70E20C94A9
:10569000FA2A0F931F93CF93DF93EC018B011882AB
:1056A000CB010E9455528D839E831F8218861986D6
:1056B0001A8609831A831B861C861F86188A198AF4
:1056C0001A8A1D861E8683E08B838AE08C831B8A60
:1056D0001C8A1D8ADF91CF911F910F910895FF922F
:1056E0000F931F93CF93DF93EC018B01F42ECB012B
:1056F000880F991F0E9455528D839E831F821886A2
:1057000019861A8609831A831B861C861F86188AA7
:10571000198A1A8A1D861E86FB821C821B8A1C8A95
:105720001D8ADF91CF911F910F91FF9008951F93D4
:10573000CF93DF93FC018389813009F46FC0278503
:1057400030898181928128173907C1F1662381F15F
:1057500087819085A581B681A80FB91F6C93878139
:1057600090850196878390872781308581819281FA
:105770002817390710F017821086878590890196BF
:105780008787908B27853089818992898217930733
:1057900020F487859089818B928B838181FF04C05F
:1057A0008481681709F43FC0DF91CF911F9108955C
:1057B000838181FFCDCF8481882351F2162FEF01A1
:1057C000838180FF08C027853089818192812817D5
:1057D000390709F452C08B8181FFE6CF8D859E8504
:1057E000892B71F12F8138858C899D89281739077C
:1057F000B8F54F81588529813A816C897D898F85DB
:105800009889860F971F841B950B821B930B8F879C
:10581000988B8C899D898F83988718C08481861383
:10582000C3CF138AC1CF87819085848B958B858563
:105830009685019685879687DF91CF911F91089570
:105840001F86188A89859A858F8398878C81181777
:1058500009F4AACF81E08B8BDF91CF911F9108953E
:105860002F8138854C895D898F859889241B350B5C
:10587000821B930B8F87988BCCCF608181E10E9434
:10588000E42AA9CFFC0127853089818192812817DC
:10589000390761F1A781B085AA0FBB1F8581968169
:1058A000A80FB91F6D937C9387819085019687839C
:1058B000908727813085818192812817390710F0E0
:1058C000178210868785908901968787908B278518
:1058D0003089818992898217930730F4878590896E
:1058E000818B928B81E0089581E008959381892FC7
:1058F000817090FFFACF608181E10E94E42A80E00C
:105900000895FC016FB7F89487859089892B61F120
:105910002581368181859285AC014F5F5F4F41873C
:105920005287D901A80FB91F8C91418552852181D9
:1059300032814217530710F011861286278530896D
:10594000215031092787308B938191FD02C06FBFB1
:10595000089594818913FBCF25853685215031091F
:10596000258736876FBF089580E0F1CFFC016FB7C0
:10597000F89487859089892B01F1A581B68181856D
:1059800092859C012F5F3F4F21873287880F991F97
:10599000A80FB91F8D919C9141855285218132813B
:1059A0004217530710F0118612862785308921503F
:1059B00031092787308B6FBF089580E090E06FBF7B
:1059C0000895FC019FB7F894278530899FBF81E037
:1059D000232B09F080E00895FC018FB7F89417821B
:1059E00010861186128613861486158616861786EB
:1059F000108A138A148A158A8FBF08952FB7F894D6
:105A0000FC0147815085438754872FBF0895FC01CF
:105A10004FB7F894278130858385948528173907F7
:105A200090F0278130856385748587859089261B52
:105A3000370B821B930B8787908B83859485878395
:105A400090874FBF08956781708521813281A3853A
:105A5000B485878590898A0F9B1F861B970B821BB5
:105A6000930B8787908B83859485878390874FBF1F
:105A70000895FC01608371834283211103C0FB01FF
:105A800042830895213011F4FB0141830895DC0124
:105A9000ED91FC91119712968C9185830895DC010C
:105AA000ED91FC91119712968C9186830895DC01FB
:105AB000ED91FC911197208512968C91922F98234D
:105AC00081E009F480E00895611108C0DC01ED91E6
:105AD000FC91119712968C9182830895613039F46C
